{
  "_format": "hh-sol-artifact-1",
  "contractName": "EnsName",
  "sourceName": "src/backend/contracts/EnsName.sol",
  "abi": [
    {
      "inputs": [],
      "stateMutability": "nonpayable",
      "type": "constructor"
    },
    {
      "inputs": [
        {
          "internalType": "uint256",
          "name": "_itemId",
          "type": "uint256"
        }
      ],
      "name": "buyENS",
      "outputs": [],
      "stateMutability": "payable",
      "type": "function"
    },
    {
      "inputs": [],
      "name": "ensContract",
      "outputs": [
        {
          "internalType": "contract IERC721",
          "name": "",
          "type": "address"
        }
      ],
      "stateMutability": "view",
      "type": "function"
    },
    {
      "inputs": [],
      "name": "itemCount",
      "outputs": [
        {
          "internalType": "uint256",
          "name": "",
          "type": "uint256"
        }
      ],
      "stateMutability": "view",
      "type": "function"
    },
    {
      "inputs": [
        {
          "internalType": "uint256",
          "name": "",
          "type": "uint256"
        }
      ],
      "name": "items",
      "outputs": [
        {
          "internalType": "uint256",
          "name": "itemId",
          "type": "uint256"
        },
        {
          "internalType": "string",
          "name": "name",
          "type": "string"
        },
        {
          "internalType": "uint256",
          "name": "tokenId",
          "type": "uint256"
        },
        {
          "internalType": "uint256",
          "name": "price",
          "type": "uint256"
        },
        {
          "internalType": "bool",
          "name": "listed",
          "type": "bool"
        },
        {
          "internalType": "address payable",
          "name": "seller",
          "type": "address"
        }
      ],
      "stateMutability": "view",
      "type": "function"
    },
    {
      "inputs": [
        {
          "internalType": "string",
          "name": "_name",
          "type": "string"
        },
        {
          "internalType": "uint256",
          "name": "_tokenId",
          "type": "uint256"
        },
        {
          "internalType": "uint256",
          "name": "_price",
          "type": "uint256"
        }
      ],
      "name": "listENS",
      "outputs": [],
      "stateMutability": "nonpayable",
      "type": "function"
    },
    {
      "stateMutability": "payable",
      "type": "receive"
    }
  ],
  "bytecode": "0x60a060405234801561001057600080fd5b507357f1887a8bf19b14fc0df6fd9b2acc9af147ea8573ffffffffffffffffffffffffffffffffffffffff1660808173ffffffffffffffffffffffffffffffffffffffff168152505060805161100461007b6000396000818161029901526105da01526110046000f3fe60806040526004361061004e5760003560e01c80634783de501461005a5780636881e763146100835780636bfb0d01146100ae578063bfb231d2146100d9578063f3eee3851461011b57610055565b3661005557005b600080fd5b34801561006657600080fd5b50610081600480360381019061007c9190610968565b610137565b005b34801561008f57600080fd5b50610098610297565b6040516100a59190610a56565b60405180910390f35b3480156100ba57600080fd5b506100c36102bb565b6040516100d09190610a80565b60405180910390f35b3480156100e557600080fd5b5061010060048036038101906100fb9190610a9b565b6102c1565b60405161011296959493929190610b8c565b60405180910390f35b61013560048036038101906101309190610a9b565b6103b2565b005b6000811161017a576040517f08c379a000000000000000000000000000000000000000000000000000000000815260040161017190610c40565b60405180910390fd5b60008081548092919061018c90610c8f565b91905055506040518060c0016040528060005481526020018481526020018381526020018281526020016001151581526020013373ffffffffffffffffffffffffffffffffffffffff168152506001600080548152602001908152602001600020600082015181600001556020820151816001019080519060200190610213929190610735565b50604082015181600201556060820151816003015560808201518160040160006101000a81548160ff02191690831515021790555060a08201518160040160016101000a81548173ffffffffffffffffffffffffffffffffffffffff021916908373ffffffffffffffffffffffffffffffffffffffff160217905550905050505050565b7f000000000000000000000000000000000000000000000000000000000000000081565b60005481565b60016020528060005260406000206000915090508060000154908060010180546102ea90610d07565b80601f016020809104026020016040519081016040528092919081815260200182805461031690610d07565b80156103635780601f1061033857610100808354040283529160200191610363565b820191906000526020600020905b81548152906001019060200180831161034657829003601f168201915b5050505050908060020154908060030154908060040160009054906101000a900460ff16908060040160019054906101000a900473ffffffffffffffffffffffffffffffffffffffff16905086565b6000600160008381526020019081526020016000206040518060c0016040529081600082015481526020016001820180546103ec90610d07565b80601f016020809104026020016040519081016040528092919081815260200182805461041890610d07565b80156104655780601f1061043a57610100808354040283529160200191610465565b820191906000526020600020905b81548152906001019060200180831161044857829003601f168201915b5050505050815260200160028201548152602001600382015481526020016004820160009054906101000a900460ff161515151581526020016004820160019054906101000a900473ffffffffffffffffffffffffffffffffffffffff1673ffffffffffffffffffffffffffffffffffffffff1673ffffffffffffffffffffffffffffffffffffffff16815250509050806060015134101561053c576040517f08c379a000000000000000000000000000000000000000000000000000000000815260040161053390610d85565b60405180910390fd5b60008211801561054e57506000548211155b61058d576040517f08c379a000000000000000000000000000000000000000000000000000000000815260040161058490610df1565b60405180910390fd5b6001151581608001511515146105d8576040517f08c379a00000000000000000000000000000000000000000000000000000000081526004016105cf90610e83565b60405180910390fd5b7f000000000000000000000000000000000000000000000000000000000000000073ffffffffffffffffffffffffffffffffffffffff166323b872dd8260a001513384604001516040518463ffffffff1660e01b815260040161063d93929190610ee5565b600060405180830381600087803b15801561065757600080fd5b505af115801561066b573d6000803e3d6000fd5b50505050600081608001901515908115158152505060008160a0015173ffffffffffffffffffffffffffffffffffffffff16346040516106aa90610f4d565b60006040518083038185875af1925050503d80600081146106e7576040519150601f19603f3d011682016040523d82523d6000602084013e6106ec565b606091505b5050905080610730576040517f08c379a000000000000000000000000000000000000000000000000000000000815260040161072790610fae565b60405180910390fd5b505050565b82805461074190610d07565b90600052602060002090601f01602090048101928261076357600085556107aa565b82601f1061077c57805160ff19168380011785556107aa565b828001600101855582156107aa579182015b828111156107a957825182559160200191906001019061078e565b5b5090506107b791906107bb565b5090565b5b808211156107d45760008160009055506001016107bc565b5090565b6000604051905090565b600080fd5b600080fd5b600080fd5b600080fd5b6000601f19601f8301169050919050565b7f4e487b7100000000000000000000000000000000000000000000000000000000600052604160045260246000fd5b61083f826107f6565b810181811067ffffffffffffffff8211171561085e5761085d610807565b5b80604052505050565b60006108716107d8565b905061087d8282610836565b919050565b600067ffffffffffffffff82111561089d5761089c610807565b5b6108a6826107f6565b9050602081019050919050565b82818337600083830152505050565b60006108d56108d084610882565b610867565b9050828152602081018484840111156108f1576108f06107f1565b5b6108fc8482856108b3565b509392505050565b600082601f830112610919576109186107ec565b5b81356109298482602086016108c2565b91505092915050565b6000819050919050565b61094581610932565b811461095057600080fd5b50565b6000813590506109628161093c565b92915050565b600080600060608486031215610981576109806107e2565b5b600084013567ffffffffffffffff81111561099f5761099e6107e7565b5b6109ab86828701610904565b93505060206109bc86828701610953565b92505060406109cd86828701610953565b9150509250925092565b600073ffffffffffffffffffffffffffffffffffffffff82169050919050565b6000819050919050565b6000610a1c610a17610a12846109d7565b6109f7565b6109d7565b9050919050565b6000610a2e82610a01565b9050919050565b6000610a4082610a23565b9050919050565b610a5081610a35565b82525050565b6000602082019050610a6b6000830184610a47565b92915050565b610a7a81610932565b82525050565b6000602082019050610a956000830184610a71565b92915050565b600060208284031215610ab157610ab06107e2565b5b6000610abf84828501610953565b91505092915050565b600081519050919050565b600082825260208201905092915050565b60005b83811015610b02578082015181840152602081019050610ae7565b83811115610b11576000848401525b50505050565b6000610b2282610ac8565b610b2c8185610ad3565b9350610b3c818560208601610ae4565b610b45816107f6565b840191505092915050565b60008115159050919050565b610b6581610b50565b82525050565b6000610b76826109d7565b9050919050565b610b8681610b6b565b82525050565b600060c082019050610ba16000830189610a71565b8181036020830152610bb38188610b17565b9050610bc26040830187610a71565b610bcf6060830186610a71565b610bdc6080830185610b5c565b610be960a0830184610b7d565b979650505050505050565b7f50726963652073686f756c642062652067726561746572207468616e20300000600082015250565b6000610c2a601e83610ad3565b9150610c3582610bf4565b602082019050919050565b60006020820190508181036000830152610c5981610c1d565b9050919050565b7f4e487b7100000000000000000000000000000000000000000000000000000000600052601160045260246000fd5b6000610c9a82610932565b91507fffffffffffffffffffffffffffffffffffffffffffffffffffffffffffffffff821415610ccd57610ccc610c60565b5b600182019050919050565b7f4e487b7100000000000000000000000000000000000000000000000000000000600052602260045260246000fd5b60006002820490506001821680610d1f57607f821691505b60208210811415610d3357610d32610cd8565b5b50919050565b7f50726963652073656e74206973206e6f7420636f727265637400000000000000600082015250565b6000610d6f601983610ad3565b9150610d7a82610d39565b602082019050919050565b60006020820190508181036000830152610d9e81610d62565b9050919050565b7f57726f6e67206974656d49640000000000000000000000000000000000000000600082015250565b6000610ddb600c83610ad3565b9150610de682610da5565b602082019050919050565b60006020820190508181036000830152610e0a81610dce565b9050919050565b7f54686973206974656d20697320686173206e6f74206265656e206c697374656460008201527f20666f722073616c650000000000000000000000000000000000000000000000602082015250565b6000610e6d602983610ad3565b9150610e7882610e11565b604082019050919050565b60006020820190508181036000830152610e9c81610e60565b9050919050565b6000610eae82610a23565b9050919050565b610ebe81610ea3565b82525050565b6000610ecf826109d7565b9050919050565b610edf81610ec4565b82525050565b6000606082019050610efa6000830186610eb5565b610f076020830185610ed6565b610f146040830184610a71565b949350505050565b600081905092915050565b50565b6000610f37600083610f1c565b9150610f4282610f27565b600082019050919050565b6000610f5882610f2a565b9150819050919050565b7f4661696c656420746f2073656e64204574686572000000000000000000000000600082015250565b6000610f98601483610ad3565b9150610fa382610f62565b602082019050919050565b60006020820190508181036000830152610fc781610f8b565b905091905056fea264697066735822122035ab2381eb274c7683087087db95cf6b903e0179982cf52dae6308eb8a7f16fa64736f6c63430008090033",
  "linkReferences": {},
  "deployedLinkReferences": {}
}